:020000040800F2
:1000000000200020810700084D0700085107000864
:1000100000000000000000000000000000000000E0
:10002000000000000000000000000000550700086C
:100030000000000000000000590700085D070008EC
:10004000D1070008D1070008D1070008D107000830
:10005000D1070008D1070008D1070008D107000820
:10006000000000006D070008D1070008D107000854
:10007000D1070008D1070008D1070008D107000800
:10008000D1070008D1070008D1070008D1070008F0
:1000900000000000D1070008D1070008D1070008C0
:1000A000D1070008D1070008D1070008D1070008D0
:0C00B000D1070008D10700080000000084
:1000BC0010B5064C2378002B07D1054B002B02D032
:1000CC00044800E000BF0123237010BDA4000020F1
:1000DC0000000000401B0008044B10B5002B03D09F
:1000EC000349044800E000BF10BDC04600000000FA
:1000FC00A8000020401B0008002243088B4274D348
:10010C0003098B425FD3030A8B4244D3030B8B420C
:10011C0028D3030C8B420DD3FF22090212BA030C15
:10012C008B4202D31212090265D0030B8B4219D3F6
:10013C0000E0090AC30B8B4201D3CB03C01A524116
:10014C00830B8B4201D38B03C01A5241430B8B425E
:10015C0001D34B03C01A5241030B8B4201D30B0347
:10016C00C01A5241C30A8B4201D3CB02C01A52416E
:10017C00830A8B4201D38B02C01A5241430A8B4231
:10018C0001D34B02C01A5241030A8B4201D30B021A
:10019C00C01A5241CDD2C3098B4201D3CB01C01A34
:1001AC00524183098B4201D38B01C01A524143093E
:1001BC008B4201D34B01C01A524103098B4201D32C
:1001CC000B01C01A5241C3088B4201D3CB00C01A99
:1001DC00524183088B4201D38B00C01A5241430811
:1001EC008B4201D34B00C01A5241411A00D2014636
:1001FC00524110467047FFE701B5002000F006F8A9
:10020C0002BDC0460029F7D076E770477047C0465C
:10021C000721244A10B513688B4305390B4313602F
:10022C00053113680B40022BFBD180221E4B520070
:10023C0019680A4380211A60C9001A680A42FCD066
:10024C00DA681A4911401A4A0A43DA60802219689E
:10025C0052040A431A608022D96852050A4380214D
:10026C00DA60114B89041A680A42FCD09A68114969
:10027C000A4007219A609A688A4305390A439A60B2
:10028C00094A363193680B40102BFBD193680A490D
:10029C000A480B40936001F0B1FB084801F0D4FB15
:1002AC0010BDC04600200240001002408C80FF1F91
:1002BC0002080020FFF0FFFFFF8FFFFF0090D0032C
:1002CC000122F0B5DE46454657464E46FC4BE0B59E
:1002DC00196CC02511431964196CFA4C0A40802121
:1002EC00A5441292129ADA6B49050A43DA63DB6B66
:1002FC00F54C0B401193119B236A2D061B021B0A14
:10030C002B432362FFF784FFFA21F04B8900186816
:10031C00FFF7F2FE802301385B0498420AD2EC4AC4
:10032C005060236A1B021B0A1D4300232562936045
:10033C00073313600C2200212DA801F0AFFB012222
:10034C00DF4C0827636B904613436363636B202574
:10035C0013401793179BA023DB059F61994610232D
:10036C009A464B4652469A619D610822012302210E
:10037C002A922B932AAB2C914846190001F0CEF807
:10038C00102201232A922B934346022600272E93F8
:10039C002AAB190048462C962D9701F0BFF8202265
:1003AC0001232A922B9343462E932AAB19004846DD
:1003BC002C962D9701F0B2F84246C221A36B89000E
:1003CC001343A363A36BC34813401093109BC24BFE
:1003DC005A5802405A50802292001A60D93A002191
:1003EC00FF3A2AA801F05AFB0C22002123A801F0A5
:1003FC0055FB8021226C49010A4322644246236C3E
:10040C0048460B401593159B636B08271343636396
:10041C00636BB24E134016930222169B022320925A
:10042C002193032322934346249320AB190001F01C
:10043C0075F8042202232092219303220023229296
:10044C002393012200232492259320AB19004846C4
:10045C0001F064F83F215046A14A13688B432E39B2
:10046C000B4313609F4BA0491A680A4002431A6061
:10047C001A689E4970300A4040211A601A688346F7
:10048C00AA431A601A689A4D8A431A601A689949E5
:10049C00824302431A601A682AA811408022520033
:1004AC000A431A601A68944911408022D2000A4308
:1004BC001A60822300225B002A922B93F0220223E3
:1004CC0012012C922D93802300229B002E922F93AD
:1004DC0000220023309231930022072301002800D0
:1004EC003292339301F098F850466B681422834390
:1004FC006B606B6800213B436B601BAD280001F007
:10050C00CDFA202200212AA801F0C8FA18220021D5
:10051C0020A801F0C3FA0221E36B30000B43E36324
:10052C00E36B0B401393139B744B29002B809F237D
:10053C001D9301F0AFF85846336860228343336053
:10054C00B3692AA83B43B36100232A922B9300235F
:10055C00002200272C922D930121020030002E97AF
:10056C0001F0DCF804225846B3699343B361736815
:10057C006C3293437360B368402283434046B3604C
:10058C00636B03436363636B03401493149B0223F9
:10059C0020922193002200232292239301230022F4
:1005AC002492259320AA1100484600F0B7FF2A0098
:1005BC00534B51CB51C211001A684D480A60514936
:1005CC009024209021914846239068460019544667
:1005DC0022970480484625906846082388340019E1
:1005EC0003804846A02427906846183300190380DE
:1005FC000BAB43CD43C302211A6020AB0993424B92
:10060C00424C0893424B0A910793424BF0220693BB
:10061C00414B04970593A0235B000193503B00933F
:10062C00039702972AA9206800F0A6FA804620605A
:10063C0000F0C6FBFF214046090400F05DFDFF23DE
:10064C000293364B00220193354B00214046009318
:10065C009B460397334B00F0EFFEFA20C00001F0ED
:10066C00DDF9314B00260025002499464B461B68CA
:10067C0000279A462B02210419433143404600F0CF
:10068C003BFD4B4652461B6801349B1AFA2202353D
:10069C000436E4B2EDB2F6B2013792009342E9D3DC
:1006AC0018A90A22380001F037FA00230393FF330C
:1006BC0002931A4B404601935B46002236E0C0463B
:1006CC000010024004F9FFFF00ED00E000000020E4
:1006DC0010E000E0FF00FFFF00E100E0000400403C
:1006EC000008024008000240EFBFFFFFFFCFFFFFF2
:1006FC0000300140FFFCFFFFFFF3FFFFE7030000AA
:10070C00581B00080000024021150008C4000020FE
:10071C0019150008F9140008CD14000800FFFF009B
:10072C0004000020681B0008C0000020009300217A
:10073C0018AB00F081FEFA20800001F06FF995E70C
:10074C00FEE7C046FEE7C0467047C0467047C0464D
:10075C00024A1368013313607047C046C000002082
:10076C0010B50021014800F02FF810BD0000024028
:10077C007047C0460D488546FFF7FAFF0C480D49F7
:10078C000D4A002302E0D458C4500433C4188C42E0
:10079C00F9D30A4A0A4C002301E013600432A24246
:1007AC00FBD301F057F9FFF78BFDFEE7002000208B
:1007BC0000000020A400002010270008A400002046
:1007CC00C8000020FEE70000012370B58C00A34098
:1007DC004268134343602C4B1B68002B40D04425CC
:1007EC002A4A02E09B58002B3AD09C6AA042F9D1CD
:1007FC00DC6AA142F6D11C6C002C03D066695C5BF0
:10080C002642EFD1224A525C0121801802688A43A9
:10081C0002600268114203D0C04602681142FBD14B
:10082C001C495A58002A1CD102205A6A516881432B
:10083C0051609168090605D57E30C0465A6A9168A8
:10084C000842FAD11449595C002905D1196C0029C8
:10085C0002D044201B5A8B61402113688B431360D8
:10086C0070BD80246402A24207D2426000225A501A
:10087C000122036813430360F2E7084C4460084C00
:10088C00A44662445A50F3E7C40000204C06000012
:10089C00781B00083C06000041060000FFFF00002A
:1008AC000100FFFFF0B54546DE4657464E46E0B523
:1008BC00436A83B001931B68050040225B063CD45D
:1008CC005C4BEB5C002B06D12B6C002B03D0442231
:1008DC00AA5A12049A610198574A0368802413405B
:1008EC0003604368554A564E13404360E023426808
:1008FC00DB001343402243600368134303600B780F
:10090C00012B65D0022B00D18AE0002B20D0494B63
:10091C00EB5C002B05D12B6C002B02D04422AA5A85
:10092C009A61402201990B6893430B6003B0F0BCB1
:10093C00BB46B246A946A046F0BDC0466B6A1B68D2
:10094C001A42BDD0C0466B6A1B681A42B8D0F4E795
:10095C00AA8F4878AF6B6B6A1204BA6130739A68CD
:10096C00920708D40220C0469A681042FBD09A68BD
:10097C00144203D0C0469A681442FBD1CB1C984653
:10098C008B789C46002B52D0C14640460221E14454
:10099C00AF8F0378BB469A465A46AF6B6B6ABA6107
:1009AC00524632739A68114207D1C0469A68114276
:1009BC00FBD09A68144203D0C0469A681442FBD10B
:1009CC0001308145E4D1414661440B78012B99D12A
:1009DC008B1C98464B789C46002B28D0C146404631
:1009EC000221E144AF8F0378BB469A465A46AF6B5F
:1009FC006B6ABA61524632739A68114207D1C0468B
:100A0C009A681142FBD09A68144203D0C0469A6887
:100A1C001442FBD101304845E4D141466144D4E74E
:100A2C008B1C9846487800F0F9FF414667E7414631
:100A3C0065E7C04641060000FF5BFFFFFFF0FFFFCC
:100A4C000030014070B5040040891D004018A18998
:100A5C0080B2891889B20B000200A669B047010068
:100A6C002000FFF71FFFEB0CEAB2DB02D2081A439F
:100A7C00FC236D09DB001D404823E05C2A4392B245
:100A8C00012801D152BA92B2636A1968490662D43C
:100A9C003549615C002906D1256C002D03D0442119
:100AAC00615A0904A9613149615C002902D1A16B29
:100ABC00A58F8D6119682E4D2940196059682D4DEF
:100ACC0029405960022833D0E0215868C9000143FD
:100ADC0040205960196801431960D1B219739968A3
:100AEC003E38890703D4C04699680842FBD0120AE5
:100AFC001A739A680221920703D4C0469A6811426D
:100B0C00FBD09A688021120603D5C0469A68114220
:100B1C00FBD1154AA25C002A05D1226C002A02D016
:100B2C004421615A916140211A688A431A6070BD50
:100B3C00F0215D6809012943402559601968294352
:100B4C0019609A819A6802211042DAD1C0469A68DB
:100B5C001142FBD0D5E74020C046616A09680842C3
:100B6C00FAD14821605C93E7410600004206000080
:100B7C00FF5BFFFFFFF0FFFFF0B557464E46DE462A
:100B8C004546E0B585B01E000EAB1B881700994694
:100B9C000FAB1B880C00984610AB00229B5E01909B
:100BAC00029311AB00229B5E039312AB1B789B4606
:100BBC0018AB1B789A46002900D1F8E0CA22002114
:100BCC00D200200000F06AFF48235246E254220073
:100BDC00179B243223CB23C223CB23C223CB23C288
:100BEC00A36A002B38D0E16A724A525C01219B182F
:100BFC001A688A431A601A68114208D0019DC046CF
:100C0C001A681142FBD14822A25C019592465246C9
:100C1C00012A0BD0022A0FD11A6867490A401A60C0
:100C2C00A0221968D2000A431A6005E01A686249CA
:100C3C000A401A601A681A600C211A688A431A60F2
:100C4C001A680A390A431A601A683E318A431A60D4
:100C5C001A6840310A431A60331CBE4200D279E054
:100C6C009BB2311CBE426ED858468AB2002850D175
:100C7C00A18049462180414661800299E3806181CF
:100C8C000399A1814A456CD898456AD3139B002BD4
:100C9C0067D0149B002B64D05B462372139B19AA5C
:100CAC006361149B454EA361159BE361169B236204
:100CBC0023004C3323CA23C3126820001A60C822B5
:100CCC000023D200A3540832A351A3502300603355
:100CDC00E365019B002B15D09B59002B0BD00122F7
:100CEC001D009B5911000132D2B2002BF8D1C82340
:100CFC00DB000195E154C9232000019ADB00E2508E
:100D0C002E4BD45005B0F0BCBB46B246A946A0460B
:100D1C00F0BD02282DD001283CD0032821D141461A
:100D2C0021804946618041460398A380091AC91A5B
:100D3C0061810299E280A18111001A000B004946E1
:100D4C00C14688469EE75846391C8AB2002800D115
:100D5C008EE7DEE73B1C9BB2311CBE4200D883E71A
:100D6C00F1E7CA2200212000D20000F097FE0020FB
:100D7C00C8E7494621804146618049460298A280D5
:100D8C00091A891A618141460398E380091AC91A24
:100D9C00A18177E7414621804946618003990298F9
:100DAC0061814946091AA380E280891AC3E70020B1
:100DBC00A8E7C046781B0008FFF0FFFF4C060000B8
:100DCC00036B70B50400002B0BD0828E192012041B
:100DDC009A6100F023FE236BA28E19209A6100F019
:100DEC001DFE6369207A984701002000FFF75AFD29
:100DFC005A23E25C131C642A00D964235A216354DD
:100E0C00E56CDEB2002D24D0E86A0A317043FFF79E
:100E1C0073F98022236D520093422ED00FD8012BF0
:100E2C0020D0102B00D1A863012229680A4205D1D9
:100E3C00296A0B432B622B681A432A6070BD8022EF
:100E4C0052019342F0D10122286429680A42F5D15B
:100E5C00EEE7636D002BF1D0002A09D05822A25A7C
:100E6C009A61EBE70122686329680A42E6D1DFE761
:100E7C005822A25A12049A61E0E70122E863296819
:100E8C000A42DBD1D4E7C046F8B5040008001100D3
:100E9C001A0006AB1B88904202D9050010002A00EC
:100EAC00994202D90D0019002B00A588854200D863
:100EBC0085E0E6888E4200D881E0954201D8013D5C
:100ECC00AAB29E4201D8013EB3B2161A5D1A01367F
:100EDC000135A78975436689DB1992198019C919DF
:100EEC009BB292B289B2A66980B2B04701002000D1
:100EFC00FFF7D8FC774BE35C002B06D1226C002A61
:100F0C0003D04433E35A1B049361734BE35C002B13
:100F1C0002D1A36BA28F9A61079BD90CDAB2D208CB
:100F2C00C9021143FC225B09D20013400B439FB250
:100F3C004823E05C012800D19BE0684B684EE752E7
:100F4C00636A1A6832401A605A68664E32405A60B8
:100F5C00022842D1F0225E681201324340265A60C8
:100F6C001A683243A66A1A60002E2AD07168E76AA2
:100F7C008C4601215C4AD25DBF00B94067463943BB
:100F8C0071605968B218084358600C339360402163
:100F9C00524BE318D36013688B43136013684031D2
:100FAC008B43136080235B029D4200D389E00021B8
:100FBC004E4B5560E150012113680B431360F8BD93
:100FCC00013D002D3ED09F819A681042F8D1C04659
:100FDC009A681042FBD0013DF3E7E0225868D2003A
:100FEC00024340205A601A680243A06A1A60002823
:100FFC0010D00121E66A3C4A4768925DB600B140C8
:10100C0039434160821802205968014359600C33FE
:10101C009360BCE7FEB23F0A002D13D002221E7370
:10102C009868024203D1C04699680A42FBD01F73EC
:10103C009868024203D1C04699680A42FBD0013D30
:10104C00002DECD19A688021120603D5C0469A680F
:10105C001142FBD11F4AA25C002A05D1226C002A46
:10106C0002D04421615A916140211A688A431A6066
:10107C00A5E71A4A7BBAA3529FB2636A184E1A6844
:10108C0032401A605A68174E32405A60E0225E684D
:10109C00D200324340265A601A683243A66A1A605C
:1010AC00002EB7D0E16A104A7768525C89008840FC
:1010BC0038437060022059686D000143B2185960C2
:1010CC00A5E70B4B53600B4B9C46084B6544E55016
:1010DC0071E7C046410600004206000044060000CD
:1010EC00FF5BFFFFFFF0FFFF781B00083C060000D2
:1010FC00FFFF00000100FFFF00B5C2888388013AA2
:10110C0083B092B2013B01910092002100229BB26C
:10111C00FFF7BAFE03B000BDF0B545465746DE46B4
:10112C004E46E0B587B0070011980491C40CC5B2C7
:10113C00E402ED082543FC244009E400204005436B
:10114C0048200192385C109A13A990460978129A9B
:10115C00ADB2012801D16DBAADB2D60CD4B2F60243
:10116C00E4083443FC265209F6003240224392B282
:10117C009246012802D152BA92B292464246107A55
:10118C000022984204D84446647A9C4200D376E00C
:10119C0043461878431EDB1001339B46042B67DC57
:1011AC005C46012662434446DB00013B9E404346BD
:1011BC0064680596A4465B785A43624403920029FE
:1011CC0060D000220292002B52D0160042461092A0
:1011DC00039ABA4690465A46059F012A43D0022AE2
:1011EC0000D1F4E0032A00D1F4E0042A01D14246F4
:1011FC001668D84400283BD06A460421525E9146BA
:10120C00002A24DB0025049C04E001340135A4B23F
:10121C00A8421ADD3300AB401F42F6D053469B88E0
:10122C0021B28B42F1DD5346DB884B45EDDD0029C5
:10123C00EBDB5046119B4A46FFF704FC109B013434
:10124C0018780135A4B2A842E4DC109B5B78029AB2
:10125C00013202929A420BDA019A013292B2019255
:10126C005A46012ABBD14246D84416780028C3D12D
:10127C0007B0F0BCBB46B246A946A046F0BD1B1A4F
:10128C00DAB285E77A89B9899446019A049E013AC3
:10129C008A18D3183200013A62441218019892B29B
:1012AC0081463000494460449BB289B2BE6980B229
:1012BC007C6AB04701003800FFF7F4FA3A6C002A58
:1012CC0003D04423FB5A1B049361BB6BBA8F9A6106
:1012DC0040222368934323602368554A13402360BC
:1012EC006368544A134063604823FB5C6268022BBA
:1012FC007AD0E023DB00134363604022236813435E
:10130C00236043465B78002B45D0482189464146F3
:10131C0043460022AC460E00B8461B78059F02924D
:10132C00109102325946012972D0022973D0032937
:10133C0074D003990D6859440391002B2AD0109650
:10134C00109B664600209C460195019B3100834012
:10135C001F4200D15146A3681A4205D1019DC046D7
:10136C00A3681A42FBD0019543464D465B5D022BA8
:10137C003FD1A18163461B7801308342E5DC614695
:10138C00B4460E0010910299013102910800717857
:10139C008142C7DC4746A36802229B0703D4C046A0
:1013AC00A3681A42FBD0A36880221B0603D5C04653
:1013BC00A3681A42FBD140222368934323603B6C01
:1013CC00002B00D154E74422BA5A9A6150E74246A6
:1013DC0016880EE742465678927836021204164367
:1013EC0042461278164304E7F0231B011343636053
:1013FC0083E7CBB22373A368090AC9B21A4205D199
:10140C00019DC046A3681A42FBD001952173B1E738
:10141C0003990D788FE703990D888CE70398417831
:10142C00857809022D040D4301780D43010082E7F4
:10143C00FF5BFFFFFFF0FFFFF0B557464E464546FA
:10144C00DE46E0B51E0085B00E9B070098460F9B4C
:10145C000C009946109B15009A4611AB1B789B46C5
:10146C003378002B23D042461278B988A2188A42CE
:10147C0008DD42465178FA886D18ADB2691800241F
:10148C00914214DC5A460392524602924A46019209
:10149C0042462100009238002A00FFF73DFE4346E9
:1014AC0001361A783378A418A4B2002BDDD1FC8154
:1014BC003D8205B0F0BCBB46B246A946A046F0BD85
:1014CC00031E0AD002280BD001280BD0033B5A1E56
:1014DC009341AF225B429343B0330348C3757047CB
:1014EC00D423FAE76423F8E71000002030B5040099
:1014FC000548250A047149BA140A5BBAC5704471CF
:10150C0082714181838130BD80000020004870478A
:10151C0094000020004870479C000020F0B5DE4687
:10152C00454657464E460122E0B50D6800239346CA
:10153C0083B0002D1AD15AE0C26891462200624352
:10154C005400A418E6434F46B0460E69A7435643D1
:10155C003E43C660464604682640340066467243E5
:10156C00224302602A000133DA4040D05A462C0054
:10157C009A4014401542F5D04A689446013A012A23
:10158C00DAD882689246220062435600B1469144F2
:10159C004E46F643B0468E685746564301964E4625
:1015AC00B7433E00019F37438760CF684668674367
:1015BC00A6433E434660C668B2460E69574656433C
:1015CC0001964E46B7433E00019F37436646C760BF
:1015DC00022EBFD1FF2C12D816005643046A3701D5
:1015EC00BF1BBC434F697E4334430462B2E7002007
:1015FC0003B0F0BCBB46B246A946A046F0BD240AD7
:10160C0064436443466A27013F1BBE434F697C43D6
:10161C00344344629EE7C0460368020070B5012063
:10162C005B0629D44E680B6848693343CE6815684D
:10163C0033430E690C6A33438E6903433343CE69DB
:10164C00000C3343104E234335402B431360536837
:10165C008D680E4E284333401843802350601B0185
:10166C009D4204D280205368400103435360802381
:10167C0000209B019C4204D0D36905490B40D361E7
:10168C0070BD8B8C1361F7E74000FFFFFBF0FFFF91
:10169C00FFF7FFFF1B4A036890422ED08022D20531
:1016AC00904217D0184A904214D0184A904215D044
:1016BC00174A904202D0174A904213D1164A13404F
:1016CC00CA68134303608B68C3620B8883620B691F
:1016DC0003630CE0702293434A6813430E4A134091
:1016EC00CA68134303608B68C3620B888362012250
:1016FC0043691343436100207047702293434A6847
:10170C001343DBE7002C01400004004000200040A4
:10171C000044014000480140FFFCFFFF802370B5EE
:10172C005B01994200D1DCE02DD8102900D103E1F6
:10173C0080235B00994252D1016A9D4E9D4C3140F1
:10174C000162036A4168C5692540146825439A4CB7
:10175C001C4013691B0223435468334024021C436E
:10176C00964B984200D174E0954B984200D170E0B2
:10177C00944B984200D16CE0D3684160C561C3635F
:10178C00046200204FE080235B02994200D17DE08F
:10179C0080235B03994245D1016A8B4D8B4C2940C8
:1017AC000162036A416D2140146824020C4388498C
:1017BC00194013691B050B4351682B4009050B435A
:1017CC007E4988425AD07E49884257D07D4988420A
:1017DC0054D0D2684465C2650362002023E001291D
:1017EC0020D1036A734E8B430362036A4568846994
:1017FC003440166834430226B343166933438B4393
:10180C0051680B436D4988420ED06D4988420BD00C
:10181C006C49884208D0D268456084614263036297
:10182C00002000E0012070BD08218B431900536992
:10183C009B000B4304218B43916889000B435C494B
:10184C000D4091690D435C490D40D16949000D4330
:10185C00E1E7604B604E1C4053690E409B022343F2
:10186C005E4C23409468A4021C43936919015C4BA1
:10187C0031431940D3695E0131437DE74568916975
:10188C00584E8902354029434160A2E7016A564D02
:10189C00564C29400162036A416D0C4011680C439F
:1018AC005349194013691B040B4351682B4009041D
:1018BC000B43424988420CD04149884209D04149E6
:1018CC00884206D0D2684465816D8265036200202F
:1018DC00A9E745689169444E0902354029434160A6
:1018EC00F0E7016A3C4E434C31400162036A4568A3
:1018FC00C1692140146824020C4339491940136909
:10190C001B030B435168334009030B432B4988429B
:10191C000CD02B49884209D02A49884206D0D2687B
:10192C004560C4610264036200207CE732490D40CB
:10193C00916989010D43F2E7036A2E4D8B430362D3
:10194C00036A466884692C4015682D022C432025B7
:10195C00AB431D0013691B012B438B4351680D01D5
:10196C0016492B4388420CD01549884209D0154999
:10197C00884206D0D268466084618263036200208C
:10198C0051E780218B431D00536940399B012B4348
:10199C008B4391688D0111492B430E4091690D4D7C
:1019AC00890031432940D569EE000E43E2E7C04679
:1019BC00FFFEFFFF8CFFFEFFFFFDFFFF002C014031
:1019CC000044014000480140FFFFEFFFFF8FFFFE86
:1019DC00FFFFDFFFFFF7FFFFFFEFFFFFFFFBFFFF47
:1019EC00FFDFFFFFFFFFFBFFFFFFFEFF8FFFFEFF91
:1019FC00FFFFFDFFFF8CFFFEFFBFFFFFFA2110B5BD
:101A0C008900FEF779FB0022034B013858609A607D
:101A1C0005321A6010BDC04610E000E0094A82B0E1
:101A2C0013680193019B431C591E8B418021C018E4
:101A3C00490213680B42FCD001380028F9D102B0DE
:101A4C007047C04610E000E0014B18607047C0467C
:101A5C000000002070B500260C4D0D4C641BA4102A
:101A6C00A64209D1002600F065F80A4D0A4C641B09
:101A7C00A410A64205D170BDB300EB5898470136AF
:101A8C00EEE7B300EB5898470136F2E70827000859
:101A9C0008270008082700080C27000803008218F4
:101AAC00934200D1704719700133F9E7F0B50C007F
:101ABC0016008DB025220700164902A800F030F858
:101ACC00621E0092B31E02AA00250192222B04D999
:101ADC0025702C0020000DB0F0BD38003100FEF751
:101AEC0091FB0B00019A2900D35C009A01355355E8
:101AFC003B0007009E42F0D90023220063550B00E7
:101B0C00C81A8342E6DD1078E55C1570E0540132AA
:101B1C00013BF5E7E026000810B5FFF7C7FF10BD45
:101B2C00002310B59A4200D110BDCC5CC4540133D3
:101B3C00F8E70000F8B5C046F8BC08BC9E467047F4
:0C1B4C00F8B5C046F8BC08BC9E467047C7
:101B58000004004001000000000000000000320006
:101B680048656C6C6F2C20776F726C6421000000E4
:101B7800081C30445800000000000000000000006D
:101B8800000000000000000808080808080800080D
:101B98000000000014141400000000000000000001
:101BA800000A0A3F1414147E282800000000081CAC
:101BB80022201C02221C08000000002051220408D8
:101BC80010224502000000001820201030494A4425
:101BD8003B000000000808080000000000000000AA
:101BE8000000040808101010101008080400001065
:101BF8000808040404040408081000000000361C47
:101C08007F1C3600000000000000000808087F085C
:101C18000808000000000000000000000000081094
:101C280000000000000000007F000000000000002D
:101C38000000000000000000080000000000010291
:101C4800040810204000000000001C22222222224A
:101C580022221C0000000008380808080808083E6E
:101C6800000000001C220202040810203E000000B0
:101C7800001C2202020C0202221C00000000040CBC
:101C88000C1414243E040E000000003E2020203CCA
:101C98000202221C000000000C1020203C222222FC
:101CA8001C000000003E2202040408081010000076
:101CB80000001C2222221C2222221C000000001CE0
:101CC8002222221E02020418000000000000000860
:101CD80000000000080000000000000008000000EC
:101CE800000810000000000004081020100804007C
:101CF8000000000000003E003E0000000000000060
:101D0800000010080402040810000000001C220251
:101D1800020408080008000000001E214D55555512
:101D28004E201C000000001808081414223E2277D8
:101D3800000000007E2121213E2121217E0000009B
:101D4800001E214040404040211E000000007C222F
:101D58002121212121227C000000007F2120243C18
:101D68002420217F000000007F2120243C24202003
:101D780078000000001E214040404741211E00001D
:101D88000000772222223E22222277000000003E15
:101D9800080808080808083E000000001E0404049B
:101DA8000404444438000000007322242428382402
:101DB8002273000000007C101010101010117F001A
:101DC800000000632236362A2A222277000000000B
:101DD800672232322A26262272000000001C224185
:101DE80041414141221C000000007E2121213E206A
:101DF800202078000000001C224141414141221C62
:101E08001B0000007E2121213E24242273000000B3
:101E1800003E4140403E0101413E000000007F4934
:101E28000808080808081C0000000077222222225F
:101E38002222221C000000007722222214141408F7
:101E48000800000000772222222A2A2A14140000FF
:101E58000000772214140814142277000000007779
:101E6800222214140808081C000000007F42040401
:101E7800081010217F000000001C10101010101016
:101E88001010101C0000004020100804020100007F
:101E9800000000001C04040404040404041C0008DA
:101EA80014220000000000000000000000000000F4
:101EB80000000000000000FF000010080000000003
:101EC800000000000000000000003C023E42423DCD
:101ED800000000006020203E212121217E0000001A
:101EE800000000003E414040413E00000000060264
:101EF800023E424242423F000000000000003E41D4
:101F08007F40413E000000000C10103C10101010E3
:101F18003C000000000000003F4242423E02023CFA
:101F280000006020202C32222222770000000008C6
:101F3800000038080808083E000000000400003CC3
:101F480004040404040438000060202026242838EF
:101F580024630000000018080808080808083E0064
:101F6800000000000000742A2A2A2A6B00000000E2
:101F78000000006C322222227700000000000000DE
:101F88003E414141413E000000000000007E212109
:101F980021213E207000000000003F424242423EA4
:101FA8000207000000000076191010107C000000E5
:101FB800000000003E413806413E000000000010CD
:101FC800103C101010120C000000000000006622E7
:101FD8002222261B00000000000000772222141491
:101FE800080000000000000077222A2A14140000CC
:101FF800000000000077221C1C227700000000006F
:102008000000772222141408083000000000007E27
:10201800440810227E00000000060808080830085E
:102028000808080600080808080808080808080832
:1020380008000030080808080608080808300000EA
:1020480000314946000000000000000000001C1C90
:102058001C1C1C1C1C1C1C000000FE9210101E11D5
:10206800111516000004083F111010101010103838
:102078000000000000000000000000000810000040
:102088000408003E12101010103800000000000074
:1020980000000000000024480000000000000000CC
:1020A800000000540000000010107C1010101010E8
:1020B800100000000010107C1010107C10100000A0
:1020C8000000001C1C1C1C1C1C1C1C1C00000021EB
:1020D800522408102052AD1200000000F848484869
:1020E8004E4949C9CE000000000000000004081055
:1020F800080400000000EC4848487E494949EE00C1
:1021080000040873222424382424227300000000C9
:10211800FE9210101E1111113900000000772222C2
:1021280022222222227F08080000207C202C322232
:1021380022227202060000100800000000000000C1
:10214800000000000810000000000000000000006F
:1021580000482400000000000000000000001224D5
:102168000000000000000000000000000000183C13
:1021780018000000000000000000000070000000CF
:10218800000000000000000000FC0000000000004B
:10219800000000000000000000000000000000FB3C
:1021A8005551000000000000000000000000001869
:1021B800282E4949CE000000000000000020100829
:1021C800102000000000000000CC487E4949EE00C5
:1021D800000000040800662438242463000000007E
:1021E800207C202C322222227700000000000000F0
:1021F80066222222223E080800000000000000009B
:10220800000000000036087F222222221E02221C23
:10221800000000000036087F2222221E02221C0035
:10222800001E040404040444443800000000413E35
:102238002222223E410000000001033F101010102E
:1022480010101038000000000808080808000808E6
:1022580008080800001E22504824120A447800008A
:1022680022007F2120243C2420217F000000001C24
:10227800224D51514D221C00000000001E214044F7
:102288007C4440211E000000000000000011224490
:102298002211000000000000003E020000000000C3
:1022A80000000000000000007F00000000000000A7
:1022B8001C2259555955221C00000022003E0808CE
:1022C80008080808083E000000000814080000007C
:1022D800000000000000000808087F080808007FC8
:1022E800000000003E080808080808083E00000032
:1022F8000008000038080808083E00000000000236
:102308001E101010101038000000000000002222DB
:102318002222223C204000003F7A7A7A3A0A0A0AAE
:102328001B00000000000000000008000000000082
:1023380000002200003E417F40413E00000000C6F0
:10234800446777544F4C44C6000000000000003E2C
:10235800417840413E000000000000000044221186
:102368002244000000000400003C040404040404A7
:102378003800003E4140403E0101413E000000005F
:102388000000003E413806413E00000000240000E5
:1023980038080808083E0000000002060A0A121E53
:1023A800222277000000007F2120203E2121217E6B
:1023B800000000007E2121213E2121217E00000015
:1023C800003F1110101010101038000000007F227C
:1023D8002222222222227F414100007F2120243C08
:1023E8002420217F00000000492A2A2A1C2A2A2AA0
:1023F80049000000003E4101011E0101413E00006C
:102408000000632226262A323222770000000C6B55
:102418003226262A32322277000000007322242432
:102428003824242273000000003F121212121212E4
:10243800527700000000632236362A2A22227700CB
:10244800000000772222223E22222277000000008C
:102458001C224141414141221C000000007F2222F0
:10246800222222222277000000007E2121213E2004
:10247800202078000000001E214040404040211EDE
:10248800000000007F490808080808081C00000030
:102498000077222222221E02221C000000001C08B3
:1024A8003E4949493E081C000000007722141408E0
:1024B80014142277000000007722222222222222EE
:1024C8003F0101000077222222221E02020700009B
:1024D80000006B2A2A2A2A2A2A2A3E000000006BBA
:1024E8002A2A2A2A2A2A2A3F010100007850501E47
:1024F800111111113E00000000E74242724A4A4A97
:102508004AF7000000007020203E212121217E0092
:102518000000003C4201111F1101423C0000000074
:10252800662929293929292966000000003F4242E5
:10253800423E1212226F000000000000003C023EE2
:1025480042423D00000000007F40203E4141413EA4
:1025580000000000003844447C4242423C00000035
:10256800000000003C420C30423C0000000000002B
:10257800003F4242423E02221C00000000003E4151
:102588007F40413E00000000000000492A1C2A2A22
:1025980049000000000000003E410E02413E0000DC
:1025A800000000000066222222261B000000000412
:1025B800080066222222261B000000000000006698
:1025C800243824246300000000000000070A0A12CF
:1025D8001263000000000000002236362A22630041
:1025E80000000000000063223E2222770000000065
:1025F8000000003E414141413E0000000000000053
:102608006C3222222277000000000000007E212187
:1026180021213E207000000000003E414040413E24
:1026280000000000000000742A2A2A2A6B0000001B
:1026380000000000772222221E02221C0000000057
:102648001C083E4949493E081C000000000077224A
:102658001C1C2277000000000000006622222226AF
:102668001B010100000000007722221E0207000063
:1026780000000000006B2A2A2A2A3E000000000001
:1026880000006B2A2A2A2A3F01010000000000707E
:10269800505E11111E00000000000000E242724A64
:1026A8004AF20000000000000070203E21217E0058
:1026B8000000000000003E410F01413E0000000004
:1026C8000000006629392929660000000000000082
:1026D8001F22221E12330000303132333435363790
:1026E80038396162636465666768696A6B6C6D6EC8
:1026F8006F707172737475767778797A000000005C
:04270800E5000008E0
:04270C00BD00000804
:102710000024F400080D0000801B000820FF0000CA
:102720000001000205002800003A015500B2050C26
:102730000C0033330036010000B7013500BB01192E
:1027400000C0012C00C20201FF00C3011200C4013D
:102750002000C6010F00D002A4A100E00ED0040D9D
:1027600011132B3F544C180D0B1F2300E10ED00406
:102770000C11132C3F44512F1F1F20230021000058
:102780001100020500130000290002780300000078
:10279000002A0400000000002B0400000000002CB0
:1027A00000030000001000020A03000000110002F4
:0427B00078030000AA
:040000050800078167
:00000001FF
