:020000040800F2
:100000000020002085070008510700085507000858
:1000100000000000000000000000000000000000E0
:100020000000000000000000000000005907000868
:1000300000000000000000005D07000861070008E4
:10004000D5070008D5070008D5070008D507000820
:10005000D5070008D5070008D5070008D507000810
:100060000000000071070008D5070008D507000848
:10007000D5070008D5070008D5070008D5070008F0
:10008000D5070008D5070008D5070008D5070008E0
:1000900000000000D5070008D5070008D5070008B4
:1000A000D5070008D5070008D5070008D5070008C0
:0C00B000D5070008D5070008000000007C
:1000BC0010B5064C2378002B07D1054B002B02D032
:1000CC00044800E000BF0123237010BDA4000020F1
:1000DC0000000000FC1A0008044B10B5002B03D0E4
:1000EC000349044800E000BF10BDC04600000000FA
:1000FC00A8000020FC1A0008002243088B4274D38D
:10010C0003098B425FD3030A8B4244D3030B8B420C
:10011C0028D3030C8B420DD3FF22090212BA030C15
:10012C008B4202D31212090265D0030B8B4219D3F6
:10013C0000E0090AC30B8B4201D3CB03C01A524116
:10014C00830B8B4201D38B03C01A5241430B8B425E
:10015C0001D34B03C01A5241030B8B4201D30B0347
:10016C00C01A5241C30A8B4201D3CB02C01A52416E
:10017C00830A8B4201D38B02C01A5241430A8B4231
:10018C0001D34B02C01A5241030A8B4201D30B021A
:10019C00C01A5241CDD2C3098B4201D3CB01C01A34
:1001AC00524183098B4201D38B01C01A524143093E
:1001BC008B4201D34B01C01A524103098B4201D32C
:1001CC000B01C01A5241C3088B4201D3CB00C01A99
:1001DC00524183088B4201D38B00C01A5241430811
:1001EC008B4201D34B00C01A5241411A00D2014636
:1001FC00524110467047FFE701B5002000F006F8A9
:10020C0002BDC0460029F7D076E770477047C0465C
:10021C000721244A10B513688B4305390B4313602F
:10022C00053113680B40022BFBD180221E4B520070
:10023C0019680A4380211A60C9001A680A42FCD066
:10024C00DA681A4911401A4A0A43DA60802219689E
:10025C0052040A431A608022D96852050A4380214D
:10026C00DA60114B89041A680A42FCD09A68114969
:10027C000A4007219A609A688A4305390A439A60B2
:10028C00094A363193680B40102BFBD193680A490D
:10029C000A480B40936001F08FFB084801F0B2FB59
:1002AC0010BDC04600200240001002408C80FF1F91
:1002BC0002080020FFF0FFFFFF8FFFFF0090D0032C
:1002CC000122F0B5DE46454657464E46FC4BE0B59E
:1002DC00196CC02511431964196CFA4C0A40802121
:1002EC00A5441292129ADA6B49050A43DA63DB6B66
:1002FC00F54C0B401193119B236A2D061B021B0A14
:10030C002B432362FFF784FFFA21F04B8900186816
:10031C00FFF7F2FE802301385B0498420AD2EC4AC4
:10032C005060236A1B021B0A1D4300232562936045
:10033C00073313600C2200212DA801F08DFB012244
:10034C00DF4C0827636B914613436363636B202573
:10035C0013401793179BA023DB059F61984610232E
:10036C009A46434652469A619D6108220123022116
:10037C002A922B932AAB2C914046190001F0ACF831
:10038C00102201232A922B934B46022600272E93F0
:10039C002AAB190040462C962D9701F09DF820228F
:1003AC0001232A922B934B462E932AAB19004046DD
:1003BC002C962D9701F090F84A46C221A36B890028
:1003CC001343A363A36BC34813401093109BC24BFE
:1003DC005A5802405A50802292001A60D93A002191
:1003EC00FF3A2AA801F038FB0C22002123A801F0C7
:1003FC0033FB8021226C49010A4322644A46236C58
:10040C0040460B401593159B636B0827134363639E
:10041C00636BB24E134016930222169B022320925A
:10042C002193032322934B46249320AB190001F014
:10043C0053F80422022320922193032200232292B8
:10044C002393012200232492259320AB19004046CC
:10045C0001F042F83F215046A14A13688B432E39D4
:10046C000B4313609F4BA0491A680A4002431A6061
:10047C001A689E4970300A4040211A601A688346F7
:10048C00AA431A601A689A4D8A431A601A689949E5
:10049C00824302431A601A682AA811408022520033
:1004AC000A431A601A68944911408022D2000A4308
:1004BC001A60822300225B002A922B93F0220223E3
:1004CC0012012C922D93802300229B002E922F93AD
:1004DC0000220023309231930022072301002800D0
:1004EC003292339301F076F850466B6814228343B2
:1004FC006B606B6800213B436B601BAD280001F007
:10050C00ABFA202200212AA801F0A6FA1822002119
:10051C0020A801F0A1FA0221E36B30000B43E36346
:10052C00E36B0B401393139B744B29002B809F237D
:10053C001D9301F08DF85846336860228343336075
:10054C00B3692AA83B43B36100232A922B9300235F
:10055C00002200272C922D930121020030002E97AF
:10056C0001F0BAF804225846B3699343B361736837
:10057C006C3293437360B368402283434846B36044
:10058C00636B03436363636B03401493149B0223F9
:10059C0020922193002200232292239301230022F4
:1005AC002492259320AA1100404600F095FF2A00C2
:1005BC00534B51CB51C211001A684D480A60514936
:1005CC0090242090219148462290404623906846E2
:1005DC000019544604804046259068460823883408
:1005EC00001903804046A024279068461833001950
:1005FC0003800BAB43CD43C302211A6020AB09939C
:10060C00414B424C0893424B0A910793414BF022C9
:10061C000693414B04970593A0235B000193503B39
:10062C000093039702972AA9206800F0A3FA80464A
:10063C00206000F0C3FBFF214046090400F03AFDA6
:10064C00FF230293354B00220193354B002140468A
:10065C0000939B460397334B00F0CCFEFA20C0006E
:10066C0001F0BAF9304B00260025002499464B4680
:10067C001B6800279A462B0221041943314340463C
:10068C0000F018FD4B4652461B6801349B1AFA22A7
:10069C0002350436E4B2EDB2F6B201379200934261
:1006AC00E9D318A90A22380001F014FA00230393A5
:1006BC00FF330293194B404601935B4636E0C0462C
:1006CC000010024004F9FFFF00ED00E000000020E4
:1006DC0010E000E0FF00FFFF00E100E0000400403C
:1006EC000008024008000240EFBFFFFFFFCFFFFFF2
:1006FC0000300140FFFCFFFFFFF3FFFFE7030000AA
:10070C00141B000800000240DD140008C400002087
:10071C00D5140008B51400088914000800FFFF0068
:10072C0004000020241B0008C000002000220093BD
:10073C00002118AB00F05EFEFA20800001F04CF9AD
:10074C0095E7C046FEE7C046FEE7C0467047C04688
:10075C007047C046024A1368013313607047C046A5
:10076C00C000002010B50121014800F02FF810BD89
:10077C00000002407047C0460D488546FFF7FAFF5F
:10078C000C480D490D4A002302E0D458C4500433E0
:10079C00C4188C42F9D30A4A0A4C002301E01360B6
:1007AC000432A242FBD301F033F9FFF789FDFEE7D7
:1007BC000020002000000020A40000202C4700088E
:1007CC00A4000020C8000020FEE700000F234A1EF2
:1007DC009200934070B543602C4B1B68002B40D0AB
:1007EC0044252B4A02E09B58002B3AD09C6AA0422D
:1007FC00F9D1DC6AA142F6D11C6C002C03D06669DD
:10080C005C5B2642EFD1234A525C012180180268BE
:10081C008A4302600268114203D0C046026811424A
:10082C00FBD11D495A58002A1CD102205A6A516822
:10083C00814351609168090605D57E30C0465A6ADD
:10084C0091680842FAD11549595C002905D1196CF7
:10085C00002902D044201B5A8B61402113688B4322
:10086C00136070BD80246402A24207D24260002251
:10087C005A500122036813430360F2E7084C4460AA
:10088C00084CA44662445A50F3E7C046C40000200A
:10089C004C060000341B00083C060000410600001A
:1008AC00FFFF00000100FFFFF8B54E46DE4657463D
:1008BC004546E0B50600736A080099461B6840225D
:1008CC005B0640D45B4BF35C002B06D1336C002BE6
:1008DC0003D04422B25A12049A614B46564A1B6802
:1008EC00022513404A4613605368544A802413402F
:1008FC004A465360E0235268DB0013434A46536078
:10090C001368402213434A4613600378012B62D0CC
:10091C00022B00D185E0002B20D0464BF35C002B42
:10092C0005D1336C002B02D04422B25A9A614B464B
:10093C0040221B6893434A461360F0BCBB46B24648
:10094C00A946A046F8BDC046736A1B681A42B9D0C6
:10095C00C046736A1B681A42B4D0F4E7B28F736A4C
:10096C004178B76B1204BA61D9609A68154207D105
:10097C00C0469A681542FBD09A68144203D0C04610
:10098C009A681442FBD1C31C9C4683789846002B72
:10099C004ED06046404461468346B78F0A78BA46CB
:1009AC005046736AB76BB861DA609A68154207D122
:1009BC00C0469A681542FBD09A68144203D0C046D0
:1009CC009A681442FBD101318B45E6D16046404414
:1009DC000378012B9CD1831C9C4643789846002BB2
:1009EC0026D06046404461468346B78F0A78BA46A3
:1009FC005046736AB76BB861DA609A68154207D1D2
:100A0C00C0469A681542FBD09A68144203D0C0467F
:100A1C009A681442FBD101315945E6D160464044F5
:100A2C00D6E7831C9846407800F0D6FF40466CE72A
:100A3C0060466AE741060000FF5BFFFFFFF0FFFF27
:100A4C0070B5040040891D004018A18980B2891836
:100A5C0089B20B000200A669B04701002000FFF725
:100A6C0023FFEB0CEAB2DB02D2081A43FC236D091C
:100A7C00DB001D404823E05C2A4392B2012801D1DF
:100A8C0052BA92B2636A1968490662D43549615CFC
:100A9C00002906D1256C002D03D04421615A09048C
:100AAC00A9613149615C002902D1A16BA58F8D61CF
:100ABC0019682E4D2940196059682D4D29405960EF
:100ACC00022833D0E0215868C90001434020596006
:100ADC00196801431960D1B2D96099683E38890709
:100AEC0003D4C04699680842FBD0120ADA609A68AF
:100AFC000221920703D4C0469A681142FBD09A682F
:100B0C008021120603D5C0469A681142FBD1154AC2
:100B1C00A25C002A05D1226C002A02D04421615A21
:100B2C00916140211A688A431A6070BDF0215D689A
:100B3C000901294340255960196829431960DA6075
:100B4C009A6802211042DAD1C0469A681142FBD051
:100B5C00D5E74020C046616A09680842FAD14821AD
:100B6C00605C93E74106000042060000FF5BFFFF5C
:100B7C00FFF0FFFFF0B557464E46DE464546E0B562
:100B8C0085B01E000EAB1B88170099460FAB1B8857
:100B9C000C00984610AB00229B5E0190029311ABA7
:100BAC0000229B5E039312AB1B789B4618AB1B7801
:100BBC009A46002900D1F8E0CA220021D200200078
:100BCC0000F04AFF48235246E2542200179B24327D
:100BDC0023CB23C223CB23C223CB23C2A36A002B58
:100BEC0038D0E16A724A525C01219B181A688A4318
:100BFC001A601A68114208D0019DC0461A68114249
:100C0C00FBD14822A25C019592465246012A0BD098
:100C1C00022A0FD11A6867490A401A60A022196883
:100C2C00D2000A431A6005E01A6862490A401A6049
:100C3C001A681A600C211A688A431A601A680A39F1
:100C4C000A431A601A683E318A431A601A684031A6
:100C5C000A431A60331CBE4200D279E09BB2311CAD
:100C6C00BE426ED858468AB2002850D1A18049465F
:100C7C002180414661800299E38061810399A181C1
:100C8C004A456CD898456AD3139B002B67D0149BAC
:100C9C00002B64D05B462372139B19AA6361149BCF
:100CAC00454EA361159BE361169B236223004C33D5
:100CBC0023CA23C3126820001A60C8220023D20062
:100CCC00A3540832A351A35023006033E365019B66
:100CDC00002B15D09B59002B0BD001221D009B59CA
:100CEC0011000132D2B2002BF8D1C823DB000195E0
:100CFC00E154C9232000019ADB00E2502E4BD45062
:100D0C0005B0F0BCBB46B246A946A046F0BD0228D1
:100D1C002DD001283CD0032821D1414621804946C1
:100D2C00618041460398A380091AC91A618102990E
:100D3C00E280A18111001A000B004946C146884689
:100D4C009EE75846391C8AB2002800D18EE7DEE7B0
:100D5C003B1C9BB2311CBE4200D883E7F1E7CA2290
:100D6C0000212000D20000F077FE0020C8E74946A1
:100D7C0021804146618049460298A280091A891A4D
:100D8C00618141460398E380091AC91AA18177E76A
:100D9C004146218049466180039902986181494608
:100DAC00091AA380E280891AC3E70020A8E7C0468D
:100DBC00341B0008FFF0FFFF4C060000036B70B5FE
:100DCC000400002B0BD0828E192012049A6100F0C3
:100DDC0003FE236BA28E19209A6100F0FDFD63695E
:100DEC00207A984701002000FFF75EFD5A23E25C51
:100DFC00131C642A00D964235A216354E56CDEB2B7
:100E0C00002D24D0E86A0A317043FFF775F980226F
:100E1C00236D520093422ED00FD8012B20D0102BD3
:100E2C0000D1A863012229680A4205D1296A0B4323
:100E3C002B622B681A432A6070BD802252019342A8
:100E4C00F0D10122286429680A42F5D1EEE7636DDE
:100E5C00002BF1D0002A09D05822A25A9A61EBE754
:100E6C000122686329680A42E6D1DFE75822A25AB8
:100E7C0012049A61E0E70122E86329680A42DBD197
:100E8C00D4E7C046F8B50400080011001A0006AB00
:100E9C001B88904202D9050010002A00994202D901
:100EAC000D0019002B00A588854200D883E0E68848
:100EBC008E4200D87FE0954201D8013DAAB29E42F5
:100ECC0001D8013EB3B2161A5D1A01360135A78955
:100EDC0075436689DB1992198019C9199BB292B2B4
:100EEC0089B2A66980B2B04701002000FFF7DCFC94
:100EFC00674BE35C002B06D1226C002A03D04433F1
:100F0C00E35A1B049361634BE35C002B02D1A36B8C
:100F1C00A28F9A61079BD90CDAB2D208C90211438D
:100F2C00FC225B09D200134019434823E25C89B2CE
:100F3C00012A00D17AE0584B584EE152636A186886
:100F4C00304018605868564E304058605868022A35
:100F5C0032D1F0221201024340205A601A68024337
:100F6C00A06A1A60002800D183E00F26E16A4D4A7E
:100F7C00525C013989008E40821846600220596803
:100F8C000143596040210C339360434BE318D36009
:100F9C0013688B431360136840318B4313608023B9
:100FAC005B029D425DD200213F4B5560E150012117
:100FBC0013680B431360F8BDE022D20002434020BB
:100FCC005A601A680243A06A1A600028CDD1CFB2C9
:100FDC000E0A002D13D00222DF609868024203D162
:100FEC00C04699680A42FBD0DE609868024203D181
:100FFC00C04699680A42FBD0013D002DECD19A689D
:10100C008021120603D5C0469A681142FBD1204AB2
:10101C00A25C002A05D1226C002A02D04421615A1C
:10102C00916140211A688A431A60C4E71A4A4BBA84
:10103C00A35299B2636A19481A6802401A605A6836
:10104C00174802405A60E0225868D2000243402000
:10105C005A601A680243A06A1A600028B7D06D0063
:10106C0083E7124B5360124B9C460F4B6544E55083
:10107C009DE70230002DC2D0D9609A68104203D18E
:10108C00C0469A681042FBD0013D002DF4D1B6E762
:10109C00410600004206000044060000FF5BFFFF13
:1010AC00FFF0FFFF341B00083C060000FFFF0000B0
:1010BC000100FFFF00B5C2888388013A83B092B269
:1010CC00013B01910092002100229BB2FFF7DAFE56
:1010DC0003B000BDF0B545465746DE464E46E0B57A
:1010EC0087B0070011980491C40CC5B2E402ED0856
:1010FC002543FC244009E40020400543482001928C
:10110C00385C109A13A990460978129AADB201284E
:10111C0001D16DBAADB2D60CD4B2F602E4083443A8
:10112C00FC265209F6003240224392B29246012824
:10113C0002D152BA92B292464246107A002298429A
:10114C0004D84446647A9C4200D376E0434618782F
:10115C00431EDB1001339B46042B67DC5C460126E7
:10116C0062434446DB00013B9E404346646805965F
:10117C00A4465B785A4362440392002960D0002253
:10118C000292002B52D0160042461092039ABA4695
:10119C0090465A46059F012A43D0022A00D1F4E01A
:1011AC00032A00D1F4E0042A01D142461668D8443F
:1011BC0000283BD06A460421525E9146002A24DB6B
:1011CC000025049C04E001340135A4B2A8421ADDC8
:1011DC003300AB401F42F6D053469B8821B28B4262
:1011EC00F1DD5346DB884B45EDDD0029EBDB50464A
:1011FC00119B4A46FFF724FC109B013418780135EB
:10120C00A4B2A842E4DC109B5B78029A01320292F1
:10121C009A420BDA019A013292B201925A46012A91
:10122C00BBD14246D84416780028C3D107B0F0BCD5
:10123C00BB46B246A946A046F0BD1B1ADAB285E7FA
:10124C007A89B9899446019A049E013A8A18D3186E
:10125C003200013A62441218019892B28146300071
:10126C00494460449BB289B2BE6980B27C6AB04783
:10127C0001003800FFF718FB3A6C002A03D0442316
:10128C00FB5A1B049361BB6BBA8F9A614022236893
:10129C00934323602368554A134023606368544A80
:1012AC00134063604823FB5C6268022B7AD0E02316
:1012BC00DB001343636040222368134323604346DF
:1012CC005B78002B45D04821894641464346002295
:1012DC00AC460E00B8461B78059F02921091023264
:1012EC005946012972D0022973D0032974D003996D
:1012FC000D6859440391002B2AD01096109B66461A
:10130C0000219C460195019B30008B401F4200D16F
:10131C005046A3681A4205D1019DC046A3681A42E3
:10132C00FBD0019543464D465B5D022B3FD1E060FF
:10133C0063461B7801318B42E5DC6146B4460E00F6
:10134C001091029901310291080071788142C7DC39
:10135C004746A36802229B0703D4C046A3681A42DF
:10136C00FBD0A36880221B0603D5C046A3681A4293
:10137C00FBD140222368934323603B6C002B00D1AC
:10138C0054E74422BA5A9A6150E7424616880EE74F
:10139C004246567892783602120416434246127828
:1013AC00164304E7F0231B011343636083E7030A2E
:1013BC00C0B2E060A0689BB2024205D1019DC0465C
:1013CC00A0680242FBD00195E360B1E703990D7868
:1013DC008FE703990D888CE703984178857809028B
:1013EC002D040D4301780D43010082E7FF5BFFFFE5
:1013FC00FFF0FFFFF0B557464E464546DE46E0B5DA
:10140C001E0085B00E9B070098460F9B0C0099465A
:10141C00109B15009A4611AB1B789B463378002B1A
:10142C0023D042461278B988A2188A4208DD424677
:10143C005178FA886D18ADB269180024914214DC09
:10144C005A460392524602924A4601924246210063
:10145C00009238002A00FFF73DFE434601361A7809
:10146C003378A418A4B2002BDDD1FC813D8205B0E9
:10147C00F0BCBB46B246A946A046F0BD031E0AD03E
:10148C0002280BD001280BD0033B5A1E9341AF22EC
:10149C005B429343B0330348C3757047D423FAE7D8
:1014AC006423F8E71000002030B504000548250A35
:1014BC00047149BA140A5BBAC570447182714181D6
:1014CC00838130BD800000200048704794000020CC
:1014DC00004870479C000020F0B5DE464546574654
:1014EC004E460122E0B50D680023934683B0002DD3
:1014FC001AD15AE0C2689146220062435400A418E3
:10150C00E6434F46B0460E69A74356433E43C6607A
:10151C004646046826403400664672432243026005
:10152C002A000133DA4040D05A462C009A4014402D
:10153C001542F5D04A689446013A012ADAD88268F5
:10154C009246220062435600B14691444E46F64301
:10155C00B0468E685746564301964E46B7433E00FA
:10156C00019F37438760CF6846686743A6433E4375
:10157C004660C668B2460E695746564301964E46BB
:10158C00B7433E00019F37436646C760022EBFD16A
:10159C00FF2C12D816005643046A3701BF1BBC43FC
:1015AC004F697E4334430462B2E7002003B0F0BCC1
:1015BC00BB46B246A946A046F0BD240A6443644328
:1015CC00466A27013F1BBE434F697C433443446248
:1015DC009EE7C0460368020070B501205B0629D463
:1015EC004E680B6848693343CE68156833430E69FF
:1015FC000C6A33438E6903433343CE69000C334387
:10160C00104E234335402B43136053688D680E4EA8
:10161C00284333401843802350601B019D4204D261
:10162C0080205368400103435360802300209B01BA
:10163C009C4204D0D36905490B40D36170BD8B8C9F
:10164C001361F7E74000FFFFFBF0FFFFFFF7FFFF21
:10165C001B4A036890422ED08022D205904217D0AC
:10166C00184A904214D0184A904215D0174A90420A
:10167C0002D0174A904213D1164A1340CA6813433A
:10168C0003608B68C3620B8883620B6903630CE095
:10169C00702293434A6813430E4A1340CA6813439B
:1016AC0003608B68C3620B88836201224369134316
:1016BC00436100207047702293434A681343DBE771
:1016CC00002C014000040040002000400044014078
:1016DC0000480140FFFCFFFF802370B55B0199427D
:1016EC0000D1DCE02DD8102900D103E180235B0070
:1016FC00994252D1016A9D4E9D4C31400162036A60
:10170C004168C5692540146825439A4C1C401369EF
:10171C001B0223435468334024021C43964B9842CB
:10172C0000D174E0954B984200D170E0944B9842F4
:10173C0000D16CE0D3684160C561C36304620020D2
:10174C004FE080235B02994200D17DE080235B0354
:10175C00994245D1016A8B4D8B4C29400162036A39
:10176C00416D2140146824020C43884919401369C7
:10177C001B050B4351682B4009050B437E498842DE
:10178C005AD07E49884257D07D49884254D0D2687D
:10179C004465C2650362002023E0012920D1036A5D
:1017AC00734E8B430362036A456884693440166840
:1017BC0034430226B343166933438B4351680B43BE
:1017CC006D4988420ED06D4988420BD06C498842D5
:1017DC0008D0D2684560846142630362002000E057
:1017EC00012070BD08218B43190053699B000B43EA
:1017FC0004218B43916889000B435C490D4091692E
:10180C000D435C490D40D16949000D43E1E7604B44
:10181C00604E1C4053690E409B0223435E4C234098
:10182C009468A4021C43936919015C4B3143194021
:10183C00D3695E0131437DE745689169584E890251
:10184C00354029434160A2E7016A564D564C294068
:10185C000162036A416D0C4011680C4353491940F5
:10186C0013691B040B4351682B4009040B43424979
:10187C0088420CD04149884209D04149884206D05F
:10188C00D2684465816D826503620020A9E74568D2
:10189C009169444E0902354029434160F0E7016AE1
:1018AC003C4E434C31400162036A4568C16921409A
:1018BC00146824020C433949194013691B030B4368
:1018CC005168334009030B432B4988420CD02B49F8
:1018DC00884209D02A49884206D0D2684560C46142
:1018EC000264036200207CE732490D409169890152
:1018FC000D43F2E7036A2E4D8B430362036A46687D
:10190C0084692C4015682D022C432025AB431D0007
:10191C0013691B012B438B4351680D0116492B4353
:10192C0088420CD01549884209D01549884206D006
:10193C00D2684660846182630362002051E7802193
:10194C008B431D00536940399B012B438B4391689A
:10195C008D0111492B430E4091690D4D8900314386
:10196C002940D569EE000E43E2E7C046FFFEFFFFBB
:10197C008CFFFEFFFFFDFFFF002C014000440140E7
:10198C0000480140FFFFEFFFFF8FFFFEFFFFDFFF6F
:10199C00FFF7FFFFFFEFFFFFFFFBFFFFFFDFFFFF87
:1019AC00FFFFFBFFFFFFFEFF8FFFFEFFFFFFFDFFB3
:1019BC00FF8CFFFEFFBFFFFFFA2110B58900FEF779
:1019CC009BFB0022034B013858609A6005321A6069
:1019DC0010BDC04610E000E0094A82B013680193C4
:1019EC00019B431C591E8B418021C018490213686E
:1019FC000B42FCD001380028F9D102B07047C04628
:101A0C0010E000E0014B18607047C0460000002059
:101A1C0070B500260C4D0D4C641BA410A64209D1C8
:101A2C00002600F065F80A4D0A4C641BA410A6426F
:101A3C0005D170BDB300EB5898470136EEE7B30003
:101A4C00EB5898470136F2E7244700082447000872
:101A5C00244700082847000803008218934200D14D
:101A6C00704719700133F9E7F0B50C0016008DB012
:101A7C0025220700164902A800F030F8621E0092D9
:101A8C00B31E02AA00250192222B04D925702C002A
:101A9C0020000DB0F0BD38003100FEF7B3FB0B0099
:101AAC00019A2900D35C009A013553553B0007007D
:101ABC009E42F0D90023220063550B00C81A8342C2
:101ACC00E6DD1078E55C1570E0540132013BF5E77A
:101ADC00FC46000810B5FFF7C7FF10BD002310B57A
:101AEC009A4200D110BDCC5CC4540133F8E700001D
:101AFC00F8B5C046F8BC08BC9E467047F8B5C04661
:081B0C00F8BC08BC9E467047BE
:101B1400000400400100000000000000000032004A
:101B240048656C6C6F2C20776F726C642100000028
:101B3400081C3044580000000000000000000000B1
:101B44000000000000000000000000000000000091
:101B54000000000000000000000000000000000081
:101B64000000000000000000000000000000000071
:101B7400000000000003000300030003000300034F
:101B84000003000300030003000000038007800734
:101B9400000300000000000000000000000000003E
:101BA400000000000000C00CC00CC00CC00CC00C35
:101BB400C00C000000000000000000000000000055
:101BC4000000000000000000000000000000000011
:101BD400000000000000000018031803300630065F
:101BE400FC7FFC7F600C600CC018C018F8FFF8FF85
:101BF40080318031006300630000000000000000B9
:101C04000000000000000000000000030003B00713
:101C1400F00F701C30180018E00FF00718001818A7
:101C2400381CF01FE01B80018001800100000000CF
:101C3400000000000000000000000000003E0077EB
:101C4400006300630077383EE0008003000EF8383C
:101C5400DC018C018C01DC01F800000000000000B4
:101C64000000000000000000000000000000000070
:101C7400000FC01F80180018001C000C000E301F3D
:101C8400E033E031C030E038F01F300F00000000D6
:101C94000000000000000000000000000000000040
:101CA400000300030003000300030003000000001E
:101CB4000000000000000000000000000000000020
:101CC4000000000000000000000000000000000010
:101CD4000000C000C0010003000300060006000667
:101CE400000C000C000C000C000C000C000600069C
:101CF400000600030003C001C00000000000000053
:101D040000000000000C000E0003000380018001AD
:101D14008001C000C000C000C000C000C00080013D
:101D24008001800100030003000E000C000000008D
:101D34000000000000000003000300033033F03F04
:101D4400C00F8007C00FE01C400800000000000026
:101D5400000000000000000000000000000000007F
:101D6400000000000000000000000000000000036C
:101D74000003000300030003F87FF87F000300035F
:101D84000003000300030000000000000000000046
:101D9400000000000000000000000000000000003F
:101DA400000000000000000000000000000000002F
:101DB400C003C003800300070007000E000C000CE2
:101DC400000000000000000000000000000000000F
:101DD400000000000000000000000000F83FF83F91
:101DE40000000000000000000000000000000000EF
:101DF40000000000000000000000000000000000DF
:101E040000000000000000000000000000000000CE
:101E140000000000000380078007000300000000AA
:101E2400000000000000000000000000300030004E
:101E340060006000C000C000800180010003000356
:101E4400000300060006000C000C00180018003007
:101E5400003000000000000000000000000000004E
:101E640000008007E01F60183030303030303030F0
:101E7400303030303030303030306018E01F800780
:101E8400000000000000000000000000000000004E
:101E9400000000008003801F801D800180018001FC
:101EA4008001800180018001800180018001F81F90
:101EB400F81F000000000000000000000000000007
:101EC4000000000000008007E01F60183018300098
:101ED40030006000E000C00180030007000E3018ED
:101EE400F03FF03F00000000000000000000000090
:101EF4000000000000000000800FC03FE0306000E0
:101F04006000E000C003E0037000300030003000E7
:101F14006038E03F800F0000000000000000000077
:101F240000000000000000000000C000C001C00369
:101F3400C002C006C00CC008C018C830F83FF83F43
:101F4400C000C000F003F003000000000000000027
:101F5400000000000000000000000000E03FE03F3F
:101F64000030003000308037E03F6038300030000F
:101F7400300030006038E03F800F000000000000B7
:101F84000000000000000000000000000000F0015C
:101F9400F00F000E0018001800308037E03F603862
:101FA4003030303030306018E01F8007000000000F
:101FB400000000000000000000000000000000001D
:101FC400F03FF03F303060006000C000C00080018E
:101FD400800180010003000300060006000C0000DD
:101FE40000000000000000000000000000000000ED
:101FF40000008007E01F6018303030306018C00FD8
:10200400C00F60183030303030306018E01F800767
:1020140000000000000000000000000000000000BC
:10202400000000008007E01F60183030303030308E
:102034007018F01FB007300060006000C001C03F9E
:10204400003E00000000000000000000000000004E
:1020540000000000000000000000000000038007F2
:102064008007000300000000000000000003800758
:1020740080070003000000000000000000000000D2
:102084000000000000000000000000000000000349
:1020940080078007000300000000000000008007A4
:1020A40080070007000E000E001C00180018000036
:1020B400000000000000000000000000000000001C
:1020C40018007800E0018007001E00780078001EE8
:1020D4008007E00178001800000000000000000004
:1020E40000000000000000000000000000000000EC
:1020F4000000000000000000F87FF87F00000000EE
:10210400F87FF87F000000000000000000000000DD
:1021140000000000000000000000000000000000BB
:102124000000000000600078001E8007E0017800D5
:102134007800E0018007001E0078006000000000C5
:10214400000000000000000000000000000000008B
:10215400801FE01F6018300030007000E001C007ED
:102164000006000600000006000F000F0006000035
:10217400000000000000000000000000000000005B
:1021840000008007E01F601830303030F0337037C3
:10219400303630367837D833003000300018E01F3E
:1021A400E007000000000000000000000000000044
:1021B40000000000001F001F80078007C00CC00C37
:1021C400C00C6018E01FE01F601830303030FCFC99
:1021D400FCFC000000000000000000000000000003
:1021E400000000000000C07FE07F70183018301835
:1021F4007018E01FF01F3818181818181818381815
:10220400F07FE07F000000000000000000000000FC
:102214000000000000000000D807F81F783C1830C8
:10222400187000600060006000600060007008309A
:102234003C3CF81FE0070000000000000000000024
:1022440000000000000000000000807FE07FF01824
:1022540030183818181818181818181818183818A2
:102264003018F018E07F807F0000000000000000BC
:10227400000000000000000000000000F87FF87F6C
:1022840018181818D818C018C01FC01FC018C018B4
:10229400181818181818F87FF87F000000000000BC
:1022A4000000000000000000000000000000FC3FEF
:1022B400FC3F0C0C0C0C6C0C600CE00FE00F600C81
:1022C400600C000C000C000C803F803F00000000FC
:1022D40000000000000000000000000000000000FA
:1022E400D807F81F783C1830187000600060006050
:1022F400FC61FC6118701830383CF81FE0070000DE
:1023040000000000000000000000000000000000C9
:102314000000FCFCFCFC3030303030303030F03F1A
:10232400F03F30303030303030303030FCFCFCFCAA
:102334000000000000000000000000000000000099
:1023440000000000F03FF03F00030003000300031F
:102354000003000300030003000300030003F03F35
:10236400F03F00000000000000000000000000003A
:10237400000000000000FC07FC0760006000600033
:102384006000600060006000606060606060C07059
:10239400C03F000F0000000000000000000000002B
:1023A4000000000000000000F8FCF8FC6030C030C1
:1023B400803100330037803FC039E0306030703006
:1023C40030303CFC3CFC0000000000000000000039
:1023D40000000000000000000000807F807F000CEF
:1023E400000C000C000C000C000C000C0C0C0C0C71
:1023F4000C0C0C0CFC7FFC7F0000000000000000B3
:102404000000000000000000000000003CF03CF070
:10241400787878787878D86CD86CD86C986798671E
:102424001863186318607CF87CF800000000000052
:102434000000000000000000000000000000FCF1AB
:10244400FCF93038303C303C303630363033B03143
:10245400B031F030F030703070FE30FE000000001B
:102464000000000000000000000000000000000068
:10247400C00FF03F787818601CE00CC00CC00CC092
:102484000CC00CC01CE018607878F03FC00F00004E
:102494000000000000000000000000000000000038
:1024A4000000C07FF07F301818181818181830185A
:1024B400F01FC01F0018001800180018807F807FCC
:1024C4000000000000000000000000000000000008
:1024D40000000000C00FF03F787818601CE00CC0CA
:1024E4000CC00CC00CC00CC01CE018607878F03F25
:1024F400C00F0004FC1F380E0000000000000000A4
:1025040000000000000080FFE0FF60303030303019
:1025140030306030E03F803FC031E03060307030B8
:102524003CFC3CFC00000000000000000000000037
:102534000000000000000000B007F01F70183030E9
:1025440000300038E01FF00F380018001830183041
:102554003038F03FC03700000000000000000000E9
:1025640000000000000000000000F87FF87F1863FE
:1025740018631863186300030003000300030003D7
:1025840000030003E01FE01F000000000000000043
:10259400000000000000000000000000FCFCFCFC47
:1025A4003030303030303030303030303030303027
:1025B400303030306018E01F800700000000000059
:1025C4000000000000000000000000000000FCFC0F
:1025D400FCFC303030303030601860186018C00CAB
:1025E400C00C800780078007000300030000000080
:1025F40000000000000000000000000000000000D7
:102604007CF87CF818601860186018633033303335
:10261400B037B037B037E03CE01C601860180000F9
:1026240000000000000000000000000000000000A6
:102634000000FCFCFCFC30306018C00CC00C8007AF
:1026440000038007C00CC00C60183030FCFCFCFC9C
:102654000000000000000000000000000000000076
:1026640000000000FCFCFCFC303060186018C00C5A
:10267400C00C800780070003000300030003E01F71
:10268400E01F000000000000000000000000000047
:10269400000000000000F03FF03F7030E030C03038
:1026A40080018001000300060006300C301C303825
:1026B400F03FF03F000000000000000000000000B8
:1026C4000000000000000000C007C007000600066C
:1026D40000060006000600060006000600060006C6
:1026E400000600060006000600060006C007C00734
:1026F4000000000000000030003000180018000C3A
:10270400000C0006000600030003000380018001A2
:10271400C000C00060006000300030000000000015
:10272400000000000000000000000000C007C00717
:10273400C000C000C000C000C000C000C000C00095
:10274400C000C000C000C000C000C000C000C00085
:10275400C007C0070000000000008001C00360063D
:10276400300C000000000000000000000000000029
:102774000000000000000000000000000000000055
:102784000000000000000000000000000000000045
:102794000000000000000000000000000000000035
:1027A4000000000000000000000000000000000025
:1027B4000000FEFFFEFF0000000000000000000C0F
:1027C400000E8003C00000000000000000000000B4
:1027D40000000000000000000000000000000000F5
:1027E40000000000000000000000000000000000E5
:1027F40000000000000000000000E007F01F38089F
:102804001800D807F81F3818183018307818FE1F29
:102814009E0700000000000000000000000000000F
:10282400000000000078007800180018C01BF01F9A
:10283400381C18180C180C180C180C181818381CFC
:10284400F07FC07B000000000000000000000000DA
:102854000000000000000000000000000000CC03A5
:10286400FC0F3C1C0C180C300030003000300818F1
:102874001C1CF80FE0030000000000000000000032
:102884000000000000000000780078001800180024
:10289400D803F80F381C18181830183018301830AE
:1028A4001818381CFE0FDE030000000000000000B2
:1028B4000000000000000000000000000000000014
:1028C4000000C003F00F381C18180C30FC3FFC3F0C
:1028D40000300018181CFC0FF0030000000000007A
:1028E400000000000000000000000000FC00FC01EB
:1028F40080030003F81FF81F000300030003000314
:102904000003000300030003F81FF81F0000000089
:1029140000000000000000000000000000000000B3
:10292400000000000000DE03FE0F381C18181830E9
:102934001830183018301818381CF80FD807180039
:1029440018006000E01F801F00000000000000006D
:102954000078007800180018E019F01F381E1818C5
:102964001818181818181818181818187E7E7E7E4B
:102974000000000000000000000000000000000053
:1029840080018001800100000000801F801F800101
:102994008001800180018001800180018001FC3F71
:1029A400FC3F0000000000000000000000000000E8
:1029B4000000C000C000C00000000000E01FE01FD5
:1029C4006000600060006000600060006000600003
:1029D4006000600060006000C000C01F001F0000B5
:1029E400000000000000003C003C000C000CFC0C4B
:1029F400FC0C600CC00C800D000F800FE00C700C00
:102A0400180C7E3C7E3C000000000000000000002A
:102A14000000000000000000801F801F8001800172
:102A2400800180018001800180018001800180019A
:102A340080018001F81FF81F000000000000000062
:102A44000000000000000000000000000000000082
:102A540000007877FC7FCC398C318C318C318C310F
:102A64008C318C318C31CE79CE790000000000009D
:102A74000000000000000000000000000000000052
:102A840000000000E079F07F381E18181818181894
:102A940018181818181818187E7E7E7E000000007A
:102AA4000000000000000000000000000000000022
:102AB400000000000000C003F00F381C18180C3090
:102AC4000C300C300C301818381CF00FC003000008
:102AD40000000000000000000000000000000000F2
:102AE4000000000000000000C07BF07F381C1818B4
:102AF4000C180C180C180C181818381CF01FC01BD4
:102B0400001800180018807F807F0000000000007B
:102B140000000000000000000000DE03FE0F381C6F
:102B2400181818301830183018301818381CF80FC6
:102B3400D803180018001800FE01FE010000000070
:102B44000000000000000000000000007C1EFE1ECB
:102B5400CC07000700060006000600060006000673
:102B6400E01FE01F00000000000000000000000063
:102B74000000000000000000000000000000D80772
:102B8400F80F381C18180018F00FF8070C000C1870
:102B94001C1CF81FF01B00000000000000000000D7
:102BA400000000000000000000000006000600060F
:102BB400F83FF83F0006000600060006000600067F
:102BC40004060E07FC03F0010000000000000000F2
:102BD40000000000000000000000000000000000F1
:102BE4000000F878F8781818181818181818181811
:102BF40018181818781CFE0F9E070000000000002B
:102C040000000000000000000000000000000000C0
:102C1400000000007E7E7E7E18181818300C300CE0
:102C240060066006C003C00380018001000000004C
:102C34000000000000000000000000000000000090
:102C44000000000000003E7C3E7C0C300C309819E3
:102C540098199819B00DF00F700E60066006000008
:102C64000000000000000000000000000000000060
:102C740000000000000000007C3E7C3E300C60063A
:102C8400C00380018001C0036006300C7C3E7C3EA2
:102C94000000000000000000000000000000000030
:102CA400000000000000000000007E7E7E7E1818F8
:102CB4001818300C300C600660064003C003800115
:102CC4008001000300030006807F807F0000000075
:102CD400000000000000000000000000F81FF81FC2
:102CE40030186018C0008001800100031806180C19
:102CF400F81FF81F000000000000000000000000A2
:102D040000000000000000006000E00180010003FA
:102D14000003000300030003000E001C000E000368
:102D2400000300030003000300038001E0016000CE
:102D34000003000300030003000300030003000377
:102D44000003000300030003000300030003000367
:102D54000003000300030003000300030003000357
:102D6400000300000000000000000000000C000F41
:102D7400000380018001800180018001E000700077
:102D8400E000800180018001800180018001000356
:102D9400000F000C0000000000000000D807F00D38
:102DA400000000000000000000000000000000001F
:102DB400000000000000000000000000000000000F
:102DC40000000000000000000000000000000000FF
:102DD40000000000000000000000000000000000EF
:102DE4000000000000008003C007C007800300004B
:102DF40000000000000000000000000000000000CF
:102E04000000F0FFF0FF30C630C600060006F807E9
:102E1400FC070E06060606060606CE06FC3E783EAF
:102E2400000000000000000000000000E000C001FD
:102E340080030000FC3FFC3F0C0C0C0C0C0C000C41
:102E4400000C000C000C000C000C000C000C803F6B
:102E5400803F0000000000000000000000000000AF
:102E6400000000000000000000000000000000005E
:102E740000000000000000000000000000008003CB
:102E840080038000800000010002000000000000B8
:102E940000000000000080030007000E0000F8FF9F
:102EA400F8FF1830183000300030003000300030A7
:102EB400003000FC00FC00000000000000000000E6
:102EC40000000000000000000000000000000000FE
:102ED40000000000000000000000000000000000EE
:102EE4000000701C701C1004100420084010000026
:102EF40000000000000000000000000000000000CE
:102F040000000000000000000000000000000000BD
:102F1400000000006066606660660000000000005B
:102F24000000000000000000000000000000800716
:102F340000030003F03FF03F000300038007800715
:102F4400000300030003000300030003000000006B
:102F5400000000000000000000000000000000006D
:102F6400800700030003F03FF03F000300038007E5
:102F7400800700030003F03FF03F000300038007D5
:102F8400000000000000000000000000000000003D
:102F9400000000000000000000000000000000002D
:102FA400000000000000000000000000000000001D
:102FB400000000000000000000000000000000000D
:102FC40000000000807800CD0085008600CA007CE7
:102FD400000400080008BC07E60C42184218E62C5E
:102FE400BC270000000000000000000000000000FA
:102FF400000000000000E0FFE0FF803180318031FC
:10300400F831FC318E3186318631863186718E619C
:10301400FCE7F8C70000000000000000000000000A
:10302400000000000000000000000000000000009C
:103034000000800080018001000300030003800180
:10304400800180000000000000000000000000007B
:1030540000000000000000000000E0F3E0F38061E5
:10306400806180618061F87FFC7F8E61866186610A
:1030740086618E61FCF3F8F300000000000000009C
:1030840000000000C001800300070000F8FCF8FC09
:103094006030C030803100330037803FC039E030C9
:1030A4006030703030303CFC3CFC0000000000001C
:1030B4000000000000000000000000000000F0FF1D
:1030C400F0FF30C630C600060006F807FC070E06FF
:1030D40006060606060606068E1F8E1F0000000062
:1030E40000000000000000000000000000000000DC
:1030F400FCFCFCFC3030303030303030303030309C
:1031040030303030303030303030FCFFFCFF0003E2
:1031140000030000000000000000000000000000A8
:103124000018C07FC07F0018E019F01F381E18185F
:10313400181818181818181818181818187E187E3F
:1031440018001800B003E0010000000000000000B7
:1031540000000000C000C000C001C0018003800363
:1031640080070000000000000000000000000000D4
:10317400000000000000000000000000000000004B
:10318400000000000000C003800380030007000764
:10319400000600060000000000000000000000001F
:1031A400000000000000000000000000000000001B
:1031B40000000000000000000C060C061C0E1C0E93
:1031C400381C381C783C000000000000000000009F
:1031D40000000000000000000000000000000000EB
:1031E400000000000000000000003C0F380E380E04
:1031F400701C701C601860180000000000000000C3
:1032040000000000000000000000000000000000BA
:1032140000000000000000000000000000000000AA
:10322400000000000000000000008003C007C00789
:103234008003000000000000000000000000000007
:10324400000000000000000000000000000000007A
:1032540000000000000000000000E00FE00F00008C
:10326400000000000000000000000000000000005A
:10327400000000000000000000000000000000004A
:10328400000000000000000000000000FC7FFC7F44
:10329400000000000000000000000000000000002A
:1032A400000000000000000000000000000000001A
:1032B400000000000000000000000000000000000A
:1032C40000000000000000000000000000000000FA
:1032D40000000000000000000000000000000000EA
:1032E400000002FD86FDCE31FE31B63186318631D5
:1032F4008631000000000000000000000000000013
:1033040000000000000000000000000000000000B9
:10331400000000000000000000000000F07FF07FCB
:10332400C018C018C018FC18FE18C618C238C63019
:10333400FEF3FCE3000000000000000000000000B9
:103344000000000000000000000000000000000079
:1033540000000002000300038001800180010003DB
:103364000003000200000000000000000000000054
:103374000000000000000000000000000000000049
:10338400E0F1E0F1C060C060C060FC7FFE7FC66019
:10339400C260C660FEF1FCF1000000000000000005
:1033A40000000000000000000000E000C0018003F5
:1033B4000000FC3CFC3C600CC00C800D000F800F36
:1033C400E00C700C180C7E3C7E3C000000000000F9
:1033D4000000000000000000000000000018C07F92
:1033E400C07F0018E019F01F381E18181818181894
:1033F40018181818181818187E7E7E7E0000000011
:1034040000000000000000000000000000000000B8
:103414000000000000007E7E7E7E18181818181820
:1034240018181818181818181818FE7FFE7F80012D
:103434008001000000000000000000000000000007
:103444000000000000000000000000000000000078
:103454000000000000000000000000000000000068
:103464000000000000000000000000000000C00C8C
:1034740080070003FCFCFCFC30303030301860184E
:10348400600C600CC006C006800380038033003FDC
:10349400000E00000000000000000000000000001A
:1034A400000000006006C003800100007E7E7E7E76
:1034B40018181818300C300C600660064003C0035E
:1034C40080018001000300030006807F807F0000EC
:1034D4000000000000000000FC07FC076000600022
:1034E40060006000600060006000606060606060B8
:1034F400C070C03F000F000000000000000000008A
:10350400000000000000000000000820D017E00EBA
:1035140030183018101030183018E00ED01708206A
:103524000000000000000000000000000000000097
:1035340000000000000000000C000C00FC3FFC3FF9
:10354400000C000C000C000C000C000C000C000C17
:10355400000C000C000C803F803F000000000000C5
:10356400000000000000000000030003000300034B
:103574000003000300030003000300000000000038
:103584000000000300030003000300030003000322
:103594000003000300000000000000000000000021
:1035A400F007F00F300C301C003E0037C033E03918
:1035B400701C380F9807D801F80070186018E01FC5
:1035C400C01F0000000000000000701C701C000000
:1035D4000000F87FF87F18181818D818C018C01FF2
:1035E400C01FC018C018181818181818F87FF87FCA
:1035F40000000000000000000000000000000000C7
:1036040000000000C007701C18300C60C447C6CC12
:10361400C28C028C028C66CCC4470C601830701CBF
:10362400C0070000000000000000000000000000CF
:10363400000000000000D807F81F783C183018700C
:103644000060807F807F00600060007008303C3C38
:10365400F81FE00700000000000000000000000068
:103664000000000000000000000000000000000056
:103674000000200260066006C00CC00CC00C60068E
:1036840060062002000000000000000000000000AE
:103694000000000000000000000000000000000026
:1036A400000000000000F87FF87F180018001800E0
:1036B40018000000000000000000000000000000EE
:1036C40000000000000000000000000000000000F6
:1036D400000000000000000000000000F83FF83F78
:1036E40000000000000000000000000000000000D6
:1036F4000000000000000000000000000000C007FF
:10370400701C18300C60C44F66C66286C287C286BD
:1037140066C6644F0C601830701CC00700000000BF
:1037240000000000000000006018601800000000A5
:10373400F03FF03F00030003000300030003000315
:1037440000030003000300030003F03FF03F000008
:103754000000000000000000000000000000000065
:1037640000008007C00F6018601860186018C00F50
:1037740080070000000000000000000000000000BE
:103784000000000000000000000000000000000035
:103794000000000000000003000300030003F87FA2
:1037A400F87F000300030003000300000000F87F1B
:1037B400F87F00000000000000000000000000008E
:1037C400000000000000F03FF03F0003000300038E
:1037D40000030003000300030003000300030003CD
:1037E400F03FF03F00000000000000000000000077
:1037F4000000000080018001800100000000801FA3
:10380400801F80018001800180018001800180018E
:103814008001FC3FFC3F00000000000000000000AD
:103824000000000000000000000000001800180064
:10383400F87FF87F00180018001800180018001806
:1038440000180018007E007E000000000000000048
:103854000000000000000000000000000000000064
:103864000000F878F8781818181818181818181884
:1038740018181818781CFE1F9E1F001800180070D6
:103884000060000000000000000000000000F81FBD
:10389400783E607E607E607E607E607E603E601EFC
:1038A400600660066006600660066006781E781E84
:1038B4000000000000000000000000000000000004
:1038C400000000000000000000008001C003C003ED
:1038D4008001000000000000000000000000000063
:1038E40000000000000000000000000000000000D4
:1038F400300C300C00000000C003F00F381C181806
:103904000C30FC3FFC3F00300018181CFC0FF00387
:1039140000000000000000000000000000000000A3
:1039240000000000FEF1FEF96638663C7E3C7E36FF
:1039340060366033E031E031E030E030603060FE2A
:1039440060FE000000000000000000000000000015
:10395400000000000000000000000000CC03FC0F89
:103964003C1C0C180C30803F803F003008181C1C95
:10397400F80FE00300000000000000000000000059
:103984000000000000000000000000000000000033
:1039940000008008C00CC00C600660066006C00C05
:1039A400C00C8008000000000000000000000000BF
:1039B400000000000000C000C000C00000000000C3
:1039C400E01FE01F600060006000600060006000B5
:1039D400600060006000600060006000C000C01F04
:1039E400001F00000000000000000000B007F01FEE
:1039F4007018303000300038E01FF00F3800180025
:103A0400183018303038F03FC03700000000000094
:103A140000000000000000000000000000000000A2
:103A240000000000D807F80F381C18180018F00F11
:103A3400F8070C000C181C1CF81FF01B00000000F9
:103A4400000000000000000000000000300C300CFA
:103A5400300C00000000801F801F80018001800165
:103A640080018001800180018001FC3FFC3F000057
:103A74000000000000000000000000000000000042
:103A84000000001F001F80078007C00CC00CC00C82
:103A94006018E01FE01F601830303030FCFCFCFC84
:103AA4000000000000000000000000000000000012
:103AB40000000000F07FF07F301800180018001894
:103AC400E01FF01F38181818181818183818F07F45
:103AD400E07F000000000000000000000000000083
:103AE400000000000000C07FE07F7018301830181C
:103AF4007018E01FF01F38181818181818183818FC
:103B0400F07FE07F000000000000000000000000E3
:103B14000000000000000000FC3FFC3F0C0C0C0CFB
:103B24000C0C000C000C000C000C000C000C000C25
:103B3400000C803F803F00000000000000000000F7
:103B440000000000000000000000FC3FFC3F300CBF
:103B5400300C300C300C300C300C301C3018301859
:103B640030383070FCFFFCFF0CC00CC000000000BB
:103B7400000000000000000000000000F87FF87F53
:103B840018181818D818C018C01FC01FC018C0189B
:103B9400181818181818F87FF87F000000000000A3
:103BA40000000000000000000000000000008E7112
:103BB4009E799819B00DB00DE007C003E007F00F2F
:103BC400B81D98199C398C318E718E7100000000DB
:103BD40000000000000000000000000000000000E1
:103BE400E01FF03F3870187018003000E001F00159
:103BF40038001800180018703870F03FE01F0000FB
:103C040000000000000000000000000000000000B0
:103C140000003CFE7CFE7030F030F030B031B0314A
:103C2400303330363036303C303C3038FCF9FCF13F
:103C3400000000000000000000000000300CF00F45
:103C4400E00700003CFE7CFE7030F030F030B03114
:103C5400B031303330363036303C303C3038FCF91B
:103C6400FCF1000000000000000000000000000063
:103C7400000000000000F8FCF8FC6030C030803127
:103C840000330037803FC039E0306030703030306E
:103C94003CFC3CFC000000000000000000000000B0
:103CA4000000000000000000FC3FFC3F300C300C22
:103CB400300C300C300C300C300C300C300C301C10
:103CC4003018FC78FC7000000000000000000000C8
:103CD400000000000000000000003CF03CF0787898
:103CE40078787878D86CD86CD86C986798671863AB
:103CF400186318607CF87CF80000000000000000E5
:103D0400000000000000000000000000FCFCFCFCBF
:103D14003030303030303030F03FF03F3030303001
:103D2400303030303030FCFCFCFC0000000000007F
:103D34000000000000000000000000000000C00FB0
:103D4400F03F787818601CE00CC00CC00CC00CC0AC
:103D54000CC01CE018607878F03FC00F0000000031
:103D6400000000000000000000000000000000004F
:103D7400FCFFFCFF30303030303030303030303009
:103D840030303030303030303030FCFCFCFC00005F
:103D9400000000000000000000000000000000001F
:103DA4000000C07FF07F3018181818181818301841
:103DB400F01FC01F0018001800180018807F807FB3
:103DC40000000000000000000000000000000000EF
:103DD40000000000D807F81F783C18301870006005
:103DE4000060006000600060007008303C3CF81F18
:103DF400E0070000000000000000000000000000D8
:103E0400000000000000F87FF87F1863186318634F
:103E1400186300030003000300030003000300030E
:103E2400E01FE01F00000000000000000000000090
:103E34000000000000000000FCFCFCFC30303030CE
:103E440030186018600C600CC006C0068003800344
:103E54008033003F000E000000000000000000005E
:103E640000000000000000000000E00FE00F8003ED
:103E7400E00FF83FBC7B8C638EE38C63BC7BF83F24
:103E8400E00F8003E00FE00F0000000000000000DE
:103E9400000000000000000000000000FCFCFCFC2E
:103EA40030306018C00CC00C800700038007C00CC1
:103EB400C00C60183030FCFCFCFC0000000000006A
:103EC4000000000000000000000000000000FCFCF6
:103ED400FCFC303030303030303030303030303046
:103EE4003030303030303030FCFFFCFF0C000C0040
:103EF40000000000000000000000000000000000BE
:103F0400FCFCFCFC3030303030303030303030307D
:103F1400F03FF01F300030003000FC00FC000000D7
:103F2400000000000000000000000000000000008D
:103F340000007EF87EF8186318631863186318632A
:103F4400186318631863186318631863FEFFFEFF91
:103F5400000000000000000000000000000000005D
:103F6400000000007CF87CF8186318631863186379
:103F74001863186318631863186318631863FEFFE3
:103F8400FEFF060006000000000000000000000024
:103F940000000000000000FF00FF00CC00CC000C7B
:103FA400000CE00FF80F180C0C0C0C0C0C0C180C7B
:103FB400F83FE03F000000000000000000000000A7
:103FC40000000000000000003EFE3EFE0C300C30FD
:103FD4000C300C300C3FCC3FCC306C306C306C303F
:103FE400CC30DEFF1EFF00000000000000000000D7
:103FF40000000000000000000000807F807F0018A7
:10400400001800180018C01FF01F301818181818CE
:1040140018183018F07FC07F000000000000000076
:10402400000000000000000000000000C037F03F66
:10403400783C18301C300C00FC01FC010C000C0016
:104044001C0018207878F03FC00F0000000000002A
:104054000000000000000000000000000000E0F884
:10406400F8FBBC670C660E6E066C067C067C066C60
:10407400066C0E6E0C66BC67F8FBE0F800000000EE
:10408400000000000000000000000000000000002C
:10409400FC07FC1F3018303030303030301CF01F3B
:1040A400F007300E301C30183038FCF0FCF0000003
:1040B40000000000000000000000000000000000FC
:1040C4000000000000000000E007F01F380818009E
:1040D400D807F81F3818183018307818FE1F9E07B4
:1040E40000000000000000000000000000000000CC
:1040F4001800F001E003C007000CC00BF01F381CCF
:1041040018180C300C300C300C301818381CF00F08
:10411400C0030000000000000000000000000000D8
:10412400000000000000000000000000F0FFF8FFA5
:104134000C300C301830F03FF03F18300C301C308D
:10414400F8FFF0FF00000000000000000000000085
:104154000000000000000000000000000000F8FF64
:10416400F8FF1830183000300030003000300030D4
:10417400003000FC00FC0000000000000000000013
:10418400000000000000000000000000000000002B
:10419400FC3FFC3F300C300C300C300C300C300C3D
:1041A400301C3018FC7FFC7F0C600C6000000000A9
:1041B40000000000000000000000000000000000FB
:1041C4000000C003F00F381C18180C30FC3FFC3FF3
:1041D40000300018181CFC0FF00300000000000061
:1041E40000000000000000000000000000000000CB
:1041F400000000009E799E79B00DE007C0038001A5
:10420400C003F00FB81D8C318E718E710000000058
:10421400000000000000000000000000000000009A
:10422400000000000000F00FF81F0C300C301800E4
:10423400F003F00318000C301C30F81FF00F0000DE
:10424400000000000000000000000000000000006A
:1042540000000000000000007E7E7E7E18183818E2
:104264007818F818D819981B181F181E7E7C7E78A9
:10427400000000000000000000000000000000003A
:1042840000006006E007800100007E7E7E7E181834
:1042940038187818F818D819981B181F181E7E7C1F
:1042A4007E78000000000000000000000000000014
:1042B400000000000000000000000000FC3CFC3C8A
:1042C400600CC00C800D000F800FE00C700C180CFB
:1042D4007E3C7E3C00000000000000000000000066
:1042E4000000000000000000000000000000FC3F8F
:1042F400FC3F300C300C300C300C300C300C301CCB
:104304003018FC78FC700000000000000000000081
:104314000000000000000000000000000000000099
:104324001E781E783C3C2C346C364C32CC338C31A9
:104334008C310C301E781E78000000000000000054
:104344000000000000000000000000000000000069
:1043540000007E7E7E7E181818181818F81FF81FA3
:104364001818181818187E7E7E7E000000000000C1
:104374000000000000000000000000000000000039
:1043840000000000C003F00F381C18180C300C306B
:104394000C300C301818381CF00FC003000000005B
:1043A4000000000000000000000000000000000009
:1043B400000000000000FE7FFE7F1818181818186F
:1043C400181818181818181818187E7E7E7E000001
:1043D40000000000000000000000000000000000D9
:1043E4000000000000000000C07BF07F381C18189B
:1043F4000C180C180C180C181818381CF01FC01BBB
:10440400001800180018807F807F00000000000062
:1044140000000000000000000000CC03FC0F3C1C66
:104424000C180C3000300030003008181C1CF80F39
:10443400E003000000000000000000000000000095
:10444400000000000000000000000000FC3FFC3FF2
:104454008C318C31800180018001800180018001D8
:10446400E007E0070000000000000000000000007A
:1044740000000000000000000000000000007E7E3C
:104484007E7E18181818300C300C60066006400345
:10449400C00380018001000300030006807F807F49
:1044A4000000000000000000C00FC00F0003000364
:1044B400C00FF03F387318630CC30CC30CC30CC398
:1044C40018633873F03FC00F00030003C00FC00F20
:1044D40000000000000000000000000000000000D8
:1044E40000007C3E7C3E300C6006C00380018001ED
:1044F400C0036006300C7C3E7C3E000000000000DF
:1045040000000000000000000000000000000000A7
:10451400000000007E7E7E7E1818181818181818DF
:104524001818181818181818FE7FFE7F06000600C1
:104534000000000000000000000000000000000077
:104544000000000000007E7E7E7E181818181818DF
:104554001818F81FF80F180018007E007E000000DD
:104564000000000000000000000000000000000047
:1045740000000000000000009E799E798C318C318F
:104584008C318C318C318C318C318C31FE7FFE7FBF
:104594000000000000000000000000000000000017
:1045A400000000000000000000009E799E798C311C
:1045B4008C318C318C318C318C318C318C31FE7F4F
:1045C400FE7F06000600000000000000000000005E
:1045D40000000000000000000000000000FC00FCDF
:1045E40000CC00CCF00FF80F3C0C0C0C0C0C3C0C69
:1045F400F80FF00F000000000000000000000000B1
:1046040000000000000000000000000000003EFC6C
:104614003EFC0C300C308C3FCC3FEC316C306C30B9
:10462400EC31DEFF9EFF00000000000000000000EF
:104634000000000000000000000000000000000076
:10464400007E007E00180018E01FF01F781818186C
:1046540018187818F07FE07F0000000000000000C8
:104664000000000000000000000000000000000046
:104674000000C033F03F383C18300C30FC01FC0122
:104684000C0018103838F01FC007000000000000AC
:104694000000000000000000000000000000000016
:1046A40000000000E0F8F8FB1C670C66066C067C52
:1046B400067C066C0C661C67F8FBE0F80000000042
:1046C40000000000000000000000000000000000E6
:1046D400000000000000FE03FE0F181C1818181834
:1046E400181CF80FF803180318277E3E7E1C0000E0
:1046F400000000000000000030313233343536371A
:1047040038396162636465666768696A6B6C6D6E8B
:104714006F707172737475767778797A000000001F
:04472400E5000008A4
:04472800BD000008C8
:10472C000024F4000F1900003C1B000820FF0000BF
:10473C000001000205002800003A015500B2050CEA
:10474C000C0033330036010000B7013500BB0119F2
:10475C0000C0012C00C20201FF00C3011200C40101
:10476C002000C6010F00D002A4A100E00ED0040D61
:10477C0011132B3F544C180D0B1F2300E10ED004CA
:10478C000C11132C3F44512F1F1F2023002100001C
:10479C00110002050013000029000278030000003C
:1047AC00002A0400000000002B0400000000002C74
:1047BC0000030000001000020A03000000110002B8
:0447CC00780300006E
:040000050800078563
:00000001FF
